:02000002B0004C
:1040000000400B00B4530B00000006000C0005023A
:084010000401E50C00000000B2
:04401800A4500B00A5
:10401C0009480A49884208B505D0094A824202D0AB
:10402C00121A00F086FF0748074A0021121A00F006
:10403C008EFF014808BD00BF38E6032018530B0063
:10404C00ACE60320ACE60320EDE7032070B5074E89
:10405C00074C00F07FFDA41BA4080025AC4200D146
:10406C0070BD56F8043B98470135F7E7C0520B007A
:10407C00E4520B0000F094B808B500F0A0F8BDE8CD
:10408C00084000F01FBD00F057BA00F05DBA007890
:10409C00B0FA80F0400970470123037070470000AC
:1040AC002DE9F74F4FF47A760024DFF880A0814693
:1040BC00884617465E43254600231946FF22CDF855
:1040CC0000902846BAF800B000F0CEFC01465846E5
:1040DC0000F001FF144BB3F800B0CDF800800023C2
:1040EC001946FF22284600F0BFFC0146584600F056
:1040FC00F2FE00231946FF220097284600F0B4FC7C
:10410C000146052000F0E7FE0134304600F040F98E
:10411C00B4F5FF7F02D103B0BDE8F08FFF2CCCBF0C
:10412C00C4F5FF752546C7E738E603203CE60320B7
:10413C00FDEEC07AFF2110B517EE903A17EE904ABB
:10414C0008460022FFF7ACFF002223461046FF2151
:10415C00FFF7A6FFFF22234611460020FFF7A0FF22
:10416C00002123460846FF22FFF79AFFFF22234631
:10417C0010460021FFF794FFFF22234611461046FC
:10418C00FFF78EFF234661226F21FF20FFF788FF88
:10419C00FF2223461146BDE810406120FFF780BF87
:1041AC0008B50121072000F085FE0121062000F052
:1041BC0081FEBDE808400121052000F07BBEB1EE78
:1041CC00040AFFF7B5BF000008B50120002100F07C
:1041DC0097F9064B0022C3E90022A2F580329A60BF
:1041EC00BDE80840012000F083B900BFACE6032015
:1041FC0008B5024B1B681B68019308BD4C020300F9
:10420C0008B5024B1B681B69019308BD4C020300E7
:10421C0008B5024B1B685B69019308BD4C02030097
:10422C0008B5024B1B689B69019308BD4C02030047
:10423C0008B5024B1B68DB69019308BD4C020300F7
:10424C0008B5024B1B681B6A019308BD4C020300A6
:10425C0008B5024B1B681B6A019308BD28020300BA
:10426C0008B5024B1B685B6A019308BD280203006A
:10427C0008B5024B1B689B6A019308BD280203001A
:10428C0008B5024B1B68DB6A019308BD28020300CA
:10429C0008B5024B1B681B6B019308BD2802030079
:1042AC0008B5024B1B685B6B019308BD2802030029
:1042BC0008B5024B1B681B6C019308BD2802030058
:1042CC0008B5024B1B68DB69019308BD3002030083
:1042DC0008B5024B1B681B6A019308BD3002030032
:1042EC0008B5024B1B68DB68019308BD3C02030058
:1042FC0008B5024B1B681B69019308BD3C02030007
:10430C0008B5024B1B685B69019308BD3C020300B6
:10431C0008B5024B1B689B69019308BD3C02030066
:10432C0008B5024B1B68DB69019308BD3C02030016
:10433C0008B5024B1B681B6A019308BD3C020300C5
:10434C0008B5024B1B689B6A019308BD3C02030035
:10435C0008B5024B1B681B6C019308BD3C020300A3
:10436C0008B5024B1B685B69019308BD640203002E
:10437C0008B5024B1B685B6C019308BD4802030037
:10438C0008B5024B1B685B68019308BD180203005B
:10439C0008B5024B1B68DB68019308BD18020300CB
:1043AC0008B5024B1B685B69019308BD180203003A
:1043BC0008B5024B1B685B68019308BD2C02030017
:1043CC0008B5024B1B689B68019308BD2C020300C7
:1043DC0008B5024B1B68DB68019308BD2C02030077
:1043EC0008B5024B1B689B6A019308BD2C020300A5
:1043FC0008B5024B1B689B6F019308BD2C02030090
:10440C0008B5024B1B689B68019308BD680203004A
:10441C0008B5024B1B68DB68019308BD68020300FA
:10442C0008B5024B1B68DB6B019308BD440203000B
:10443C0008B5024B1B685B68019308BD4002030082
:10444C0008B5024B1B689B68019308BD4002030032
:10445C0008B5024B1B68DB68019308BD40020300E2
:10446C0008B5024B1B681B69019308BD4002030091
:10447C0008B5024B1B685B69019308BD4002030041
:10448C0008B5024B1B689B69019308BD40020300F1
:10449C0008B5024B1B68DB69019308BD40020300A1
:1044AC0008B5024B1B681B6A019308BD4002030050
:1044BC0008B5024B1B681B6B019308BD400203003F
:1044CC0008B5024B1B685B6B019308BD40020300EF
:1044DC0008B5024B1B681B6C019308BD400203001E
:1044EC0008B5024B1B685B6C019308BD40020300CE
:1044FC0008B5024B1B685B68019308BD20020300E2
:10450C0008B5024B1B68DB6A019308BD200203004F
:10451C0008B5034B1B68D3F88830019308BD000025
:10452C002002030008B5034B1B68D3F894300193A9
:10453C0008BD00002002030008B5024B1B681B6875
:10454C00019308BD1C02030008B5024B1B685B6895
:10455C00019308BD1C02030008B5024B1B681B6CC1
:10456C00019308BD1C02030008B5024B1B685B6C71
:10457C00019308BD1C020300002340681A46FFF794
:10458C0057BF406800220221FFF762BF002240683B
:10459C001146FFF755BF002240681146FFF760BF78
:1045AC00002340681A461946FFF762BF0023406893
:1045BC001A461946FFF764BF40680021FFF788BF11
:1045CC0040680021FFF78CBF4068002281F0010198
:1045DC00FFF75EBF40680022FFF76ABF0022406809
:1045EC001146FFF76DBF002240681146FFF758BF18
:1045FC002DE9F04395B014460D46074600F0F6F948
:10460C0000211C220DA8009100F0A1FC40230C936A
:10461C0020466B460CAA0021FFF7FAFE0446002840
:10462C004BD1024601216868FFF71AFF0221804630
:10463C0022466868FFF714FF009E81462146002E33
:10464C003BD0002939D17368022B03D00A2B11D02F
:10465C00F669F4E7B8F1000FFAD0716906A80431D5
:10466C0007AD00F0F1F90FCD3C1D0FC42B68237082
:10467C004146EDE7B9F1000FEAD07469102201A8A8
:10468C0000F065FC06238DF8143001AD04F108032D
:10469C001834186859682A4603C20833A3421546D1
:1046AC00F7D101A906A807AD00F0AEF90FCD3C1D5E
:1046BC000FC42B6823704946CAE70098FFF7A0FE89
:1046CC00384615B0BDE8F083024B034A1A6000224D
:1046DC005A607047B8E60320C0500B0000224068B7
:1046EC001146FFF7BDBE002240681146FFF7D8BE49
:1046FC00002240681146FFF7E3BE40680022FFF736
:10470C00D7BE4068002281F00101FFF7C1BE002333
:10471C0040681A461946FFF7B3BE002340681A4694
:10472C001946FFF7A5BE002240681146FFF788BE68
:10473C00406800220221FFF78BBE002340681A4616
:10474C00FFF776BE024B04225A60024A1A60704789
:10475C00C0E60320FC500B0070474174704708B54D
:10476C00007CFFF7EDFD20EAE07008BD08B5007C89
:10477C00FFF7BEFD20EAE07008BD08B5007CFFF72E
:10478C00C7FD40EAE07008BD08B5007CFFF7B8FD36
:10479C0040EAE07008BD007CFFF7C2BD37B5457C30
:1047AC0004462DB1207C03B0BDE83040FFF798BD26
:1047BC00007C0191FFF7C4FD00280199F2DC28462A
:1047CC0003B030BD10B514210446FFF75EFC204643
:1047DC0010BD000010B54FF47A730446084611461C
:1047EC000022C4E90123044B236001232074637469
:1047FC00FFF7AEFD204610BD38510B007047F8B5E1
:10480C00064615460C468F18BC4206D0336814F881
:10481C00011B9B6830469847F6E72846F8BD007C9C
:10482C000022FFF715BD007C0021FFF719BD007CAD
:10483C000021FFF71DBD007C0021FFF721BD007C8E
:10484C000021FFF725BD10B514210446FFF71DFC10
:10485C00204610BD10B54FF47A730446084600216B
:10486C00C4E90113034B236020741146FFF720FDAC
:10487C00204610BD68510B0041747047704770475B
:10488C0008B50021007CFFF7CBFC40EAE07008BDC6
:10489C0008B50121007CFFF7C3FC40EAE07008BDBD
:1048AC0008B5007CFFF7B4FC20EAE07008BD08B541
:1048BC00007CFFF7A5FC20EAE07008BD13B50446A8
:1048CC00007C0191FFF7A4FC0028019901DC607CBD
:1048DC0020B1207CFFF7ACFC20EAE07002B010BDE8
:1048EC00007CFFF7ADBC10B514210446FFF7CDFBDF
:1048FC00204610BD10B54FF47A73044608460021CB
:10490C00C4E90113044B2360012320746374114622
:10491C00FFF76EFC204610BD90510B0010B5142211
:10492C000446002100F013FB204610BD10B50F4CBF
:10493C0088B003A8FFF7F2FF2178BFF35B8F11F06B
:10494C0001010FD120460191FFF7A1FB019948B15C
:10495C0003AA0748FFF7CEFF2046FFF79DFB05484B
:10496C0000F0E1FA024808B010BD00BFC8E6032011
:10497C00CCE6032089480B00704710B5182104467B
:10498C00FFF783FB204610BDF0B5037D062B8DB0E1
:10499C000E4600F104074FF0000412D000F1080598
:1049AC0015F8011D0A22304600F049F9AF420444C3
:1049BC0019D0002CF4D02E21304600F03DF90444DF
:1049CC00EEE72F236A4639460A208DF80040FFF7A0
:1049DC00C7FC684600F0F2FA33680246DB686946A9
:1049EC0030469847044620460DB0F0BD10B5054B37
:1049FC000446112240F8043B002100F0A8FA20469E
:104A0C0010BD00BFC0510B000346074A10B543F858
:104A1C00042B01F1100251F8044B43F8044B914262
:104A2C00F9D10A781A7010BDC0510B0010B59DF861
:104A3C00084044EA032343EA024242EA01610423A8
:104A4C004160037510BD000007B5064B0360CB78C1
:104A5C0000938B784A780978FFF7E8FF03B05DF88C
:104A6C0004FB00BFC0510B008A4210B507D0441A9A
:104A7C000298C01A4443501A94FBF0F0184410BD2D
:104A8C00014B1860704700BF44E6032008B50B4B80
:104A9C0043B1FFF74BFF03681B699847002801DD02
:104AAC00AFF30080064B43B100F0A2F903681B6919
:104ABC009847002801DDAFF3008008BD000000001E
:104ACC000000000008B5FFF7E1FFFFF769FC014BA0
:104ADC00186008BD34E703200548064A064908B5A6
:104AEC00121A00F026FA054B054A1A6008BD00BFE1
:104AFC0000F4032004F4032014530B0000F40320EF
:104B0C001E1C279A07B5002300931A466FF07701F5
:104B1C00FFF708FD03B05DF804FB000007B5438800
:104B2C000A2B08D0502B0BD1094B1B684BB103B08F
:104B3C005DF804EB1847FFF7E5FF03B05DF804FBE5
:104B4C00002300931A466FF07701FFF7EBFCF4E7B4
:104B5C00E4E6032010B512480021FFF705FD114BC8
:104B6C001A68114B9A42114B0CBF012200221A7089
:104B7C0001D0FFF7B1FFFFF703FC044600F0F0F99A
:104B8C000B4B13B12046AFF3008000210848FFF710
:104B9C0047FCBDE8104007480021FFF7B9BC00BF37
:104BAC008D4A0B0000F403201E1C279AE0E603201C
:104BBC0000000000294B0B00014B00229A6070474B
:104BCC00E8E60320024B1A68024B1A60704700BFDC
:104BDC0040E60320F8E60320014B024A1A607047B6
:104BEC00FCE60320E8510B00F8B506460D468F187D
:104BFC000024BD420CD0336815F8011B9B6830466D
:104C0C009847031E01DB1C44F3E7002C08BF1C462D
:104C1C002046F8BD13B50446084659B1019100F081
:104C2C00CDF923680199DB680246204602B0BDE845
:104C3C001040184702B010BD03689B68184730B588
:104C4C008BB00023012A8DF8243098BF0A2209ACBE
:104C5C000D46B1FBF2F101FB125303F0FF03092BDC
:104C6C0094BF30333733DBB2AA4204F8013DEFD99D
:104C7C002146FFF7CFFF0BB030BD000002480023E8
:104C8C000360FFF775BB00BF00E70320054B022252
:104C9C001A60054B054A9A600020C3E90000FFF733
:104CAC0027BC00BF10E7032004E703200000FFFF30
:104CBC0010B5044608462170FFF702FB0023636021
:104CCC00204610BD002240681146FFF7E9BB0022C8
:104CDC0040681146FFF7F4BB40680022FFF7E8BBC1
:104CEC004068002281F00101FFF7D2BB002340682D
:104CFC001A461946FFF7C4BB002340681A461946EA
:104D0C00FFF7B6BB002240681146FFF7A9BB002293
:104D1C0040681146FFF794BB406800220221FFF760
:104D2C0097BB002340681A46FFF782BB024B032255
:104D3C005A60024A1A60704714E70320F4510B00C2
:104D4C007047000038B520251423044603608560A5
:104D5C0005610649284600F0E4F8044960602846DD
:104D6C0000F0DFF8E060204638BD00BF28520B0091
:104D7C0030B50E4D2978BFF35B8F11F0010487B06D
:104D8C0011D12846FFF783F968B101A8FFF7DAFFC4
:104D9C0001AA21460648FFF75DFD2846FFF77CF97E
:104DAC00044800F0C0F8024807B030BD1CE70320EF
:104DBC0020E703204D4D0B007047000038B504462A
:104DCC0014252A46002100F0C2F825804025074909
:104DDC0025812846258200F0A4F804496060284605
:104DEC0000F09FF8E060204638BD00BF28520B0051
:104DFC0030B50E4D2978BFF35B8F11F0010487B0ED
:104E0C0011D12846FFF743F968B101A8FFF7D6FF87
:104E1C0001AA21460648FFF7DDFC2846FFF73CF9BE
:104E2C00044800F080F8024807B030BD38E7032092
:104E3C003CE70320C54D0B00232813B502D90020F5
:104E4C0002B010BDA0F10B03022B1AD8174C21781D
:104E5C00BFF35B8F11F001010BD120460191FFF7DD
:104E6C0016F9019928B11248FFF722FF2046FFF7E7
:104E7C0013F90F4B1878FFF72BFA0028DFD101201C
:104E8C00DEE7012809D8FFF773FF0021007CFFF74C
:104E9C0007FA80F00100C0B2D2E709380128EED839
:104EAC00FFF7A6FF007CFFF743FAF2E750E7032079
:104EBC0054E70320232838B504460D460AD8FF29A9
:104ECC0008D0FFF7B9FF28B129462046BDE8384085
:104EDC00FFF776BA38BD38B504460D46FFF7ACFF80
:104EEC00F0B104212046FFF763FA042805D1A9B2DA
:104EFC002046BDE83840FFF773BA02212046FFF781
:104F0C0057FA02280CD12046FFF762FA012801D08B
:104F1C00042805D129462046BDE83840FFF768BA79
:104F2C0038BDFFF7B0B8002301461A46184600F00A
:104F3C004DB80A44914200F1FF3300D1704710B5CF
:104F4C0011F8014B03F8014F9142F9D110BD024405
:104F5C000346934200D1704703F8011BF9E70000A8
:104F6C0038B5104B1D68AB6B0446B3B91820FFF76E
:104F7C00E3FA0246A86320B90B4B0C484221FFF719
:104F8C00EBFA0B490B4BC0E900130B4B83600B2363
:104F9C00838100210120C2E90401AB6B00221C615A
:104FAC005A6138BD44E6032029520B0040520B00D5
:104FBC000E33CDAB34126DE6ECDE0500034613F870
:104FCC00012B002AFBD1181A013870472DE9F84340
:104FDC00DFF8B8800646D8F800001F460D4691460B
:104FEC0000F056F8254B1C6834B9254C1C60254B39
:104FFC0013B11B68C4F8883063681F2B07DDD8F821
:10500C00000000F047F84FF0FF30BDE8F8834EB3D6
:10501C00D4F8880088B91C4B23B9D8F8000000F0EC
:10502C0038F8F0E74FF48470FFF786FA0028F4D0D4
:10503C000023C0E94033C4F88800636840F823902B
:10504C0001229A4000EB8301D0F800311343C0F8E1
:10505C000031022EC1F8807002BFD0F80431134326
:10506C00C0F804316368D8F800005A1C023362603F
:10507C0044F8235000F00EF80020C6E7E8E70320C0
:10508C005CE703200000000045450B00A8E6032068
:10509C0070477047704700001D400B0059400B00D3
:1050AC0081400B0085400B00000000000000000058
:1050BC000000000085450B008F450B0099450B0047
:1050CC00A3450B00AD450B00B9450B00C5450B00C6
:1050DC00CD450B00D5450B00E1450B00E9450B0018
:1050EC00F3450B00FD450B00000000000000000024
:1050FC0047470B003D470B0033470B00E9460B00BD
:10510C0027470B001B470B00C5450B00CD450B007B
:10511C000F470B0007470B00FD460B00F3460B0037
:10512C00FD450B00000000000000000065470B006F
:10513C00D1470B00A9470B00F54B0B0079470B002F
:10514C0095470B0087470B00A3470B0067470B00E5
:10515C006B470B00000000000000000009480B002A
:10516C0053480B002B480B000B480B0033480B002B
:10517C003B480B0043480B004B480B000000000061
:10518C00000000008B480B00F3480B00C9480B00D3
:10519C00F54B0B00BB480B008D480B009D480B00DA
:1051AC00ED480B00AD480B0085480B0000000000DB
:1051BC000000000095490B0085490B0087490B0046
:1051CC0025592D256D2D25645425483A254D3A2514
:1051DC0053257A0061736374696D650061707000AA
:1051EC0000000000000000002F4D0B00254D0B00AF
:1051FC001B4D0B00114D0B00054D0B00F94C0B001A
:10520C00C5450B00CD450B00ED4C0B00E54C0B00E0
:10521C00DB4C0B00D14C0B00FD450B0000524545FF
:10522C004E54206D616C6C6F6320737563636565A0
:10523C00646564002F6D6E742F776F726B73706181
:10524C0063652F776F726B73706163652F47434390
:10525C002D31302D706970656C696E652F6A656EC5
:10526C006B696E732D4743432D31302D706970651A
:10527C006C696E652D34385F3230323031313234F6
:10528C005F313630363138303634312F7372632F0C
:10529C006E65776C69622F6E65776C69622F6C69CD
:1052AC0062632F7374646C69622F72616E642E6317
:1052BC0000000000D5410B00D5460B0051470B00F8
:1052CC00C54B0B00D14B0B00E54B0B00894C0B0075
:1052DC00994C0B00394D0B00000000000000000041
:0452EC0000000000BE
:1052F000040000001400000003000000474E5500A9
:10530000D6C44D5B50346B0E7F0FDF526A986988AC
:0453100067B3F9F591
:045314000000000095
:105318000600000007000000E0510B0048E60320EB
:105328000000000000000000000000000000000075
:105338000000000000000000000000000000000065
:105348000000000000000000000000000000000055
:105358000000000000000000000000000000000045
:105368000000000000000000000000000000000035
:105378000000000000000000000000000000000025
:04538800ECE703202B
:10538C00FFFFFFFF00000102030405060708090ADE
:10539C000B0C0D0E0F101112131415161718191AD9
:0853AC001B1C1D1E1F20280020
:0453B40078563412E1
:04000003B000401CED
:00000001FF
