:02000002B0004C
:1040000000400B00DC530B00000006000C00050212
:084010000401E50C00000000B2
:04401800DC500B006D
:10401C0009480A49884208B505D0094A824202D0AB
:10402C00121A00F0A2FF0748074A0021121A00F0EA
:10403C00AAFF014808BD00BF40E6032048530B000F
:10404C00ACE60320ACE60320EDE7032070B5074E89
:10405C00074C00F09BFDA41BA4080025AC4200D12A
:10406C0070BD56F8043B98470135F7E7F8520B0042
:10407C001C530B0000F0BCB808B500F0C8F8BDE844
:10408C00084000F03BBD00F07FBA00F085BA007824
:10409C00B0FA80F0400970470123037070470000AC
:1040AC0038B500242DED028BDFED0E8AB0EE408A80
:1040BC00214685B2284600F02AFF68EE287A0134A2
:1040CC00FDEEE77A17EE900A00F08AF9B4F5FF7F5F
:1040DC0002D1BDEC028B38BDFF2CCCBFC4F5FF71F7
:1040EC002146E7E700007A44F8B500242DED028B59
:1040FC00DFED118AB0EE408A254687B28EB2294692
:10410C00384600F004FF2946304600F000FF68EE08
:10411C00287A0134FDEEE77A17EE900A00F060F988
:10412C00B4F5FF7F02D1BDEC028BF8BDFF2CCCBFE8
:10413C00C4F5FF752546E2E700007A4410B52DED75
:10414C00028B0024DFED138A82B0B0EE408A214648
:10415C000720019100F0DBFE0199062000F0D7FE4C
:10416C000199052000F0D3FE68EE287A0134FDEEAB
:10417C00E77A17EE900A00F033F9B4F5FF7F03D11C
:10418C0002B0BDEC028B10BDFF2CCCBFC4F5FF718F
:10419C002146DDE700007A4408B507202DED028B9F
:1041AC00B0EE408AFFF77CFFB0EE480A06210720EC
:1041BC00FFF79AFFB0EE480A0620FFF771FFB0EE4A
:1041CC00480A05210620FFF78FFFB0EE480A0520AC
:1041DC00FFF766FFB0EE480A07210520FFF784FFC2
:1041EC00B0EE480ABDEC028BBDE80840FFF7A6BF55
:1041FC0008B50121072000F079FE0121062000F00E
:10420C0075FEBDE808400121052000F06FBEB1EE3F
:10421C00040AFFF7C1BF000008B50120002100F01F
:10422C0097F9064B0022C3E90022A2F580329A606E
:10423C00BDE80840012000F083B900BFACE60320C4
:10424C0008B5024B1B681B68019308BD4C020300A8
:10425C0008B5024B1B681B69019308BD4C02030097
:10426C0008B5024B1B685B69019308BD4C02030047
:10427C0008B5024B1B689B69019308BD4C020300F7
:10428C0008B5024B1B68DB69019308BD4C020300A7
:10429C0008B5024B1B681B6A019308BD4C02030056
:1042AC0008B5024B1B681B6A019308BD280203006A
:1042BC0008B5024B1B685B6A019308BD280203001A
:1042CC0008B5024B1B689B6A019308BD28020300CA
:1042DC0008B5024B1B68DB6A019308BD280203007A
:1042EC0008B5024B1B681B6B019308BD2802030029
:1042FC0008B5024B1B685B6B019308BD28020300D9
:10430C0008B5024B1B681B6C019308BD2802030007
:10431C0008B5024B1B68DB69019308BD3002030032
:10432C0008B5024B1B681B6A019308BD30020300E1
:10433C0008B5024B1B68DB68019308BD3C02030007
:10434C0008B5024B1B681B69019308BD3C020300B6
:10435C0008B5024B1B685B69019308BD3C02030066
:10436C0008B5024B1B689B69019308BD3C02030016
:10437C0008B5024B1B68DB69019308BD3C020300C6
:10438C0008B5024B1B681B6A019308BD3C02030075
:10439C0008B5024B1B689B6A019308BD3C020300E5
:1043AC0008B5024B1B681B6C019308BD3C02030053
:1043BC0008B5024B1B685B69019308BD64020300DE
:1043CC0008B5024B1B685B6C019308BD48020300E7
:1043DC0008B5024B1B685B68019308BD180203000B
:1043EC0008B5024B1B68DB68019308BD180203007B
:1043FC0008B5024B1B685B69019308BD18020300EA
:10440C0008B5024B1B685B68019308BD2C020300C6
:10441C0008B5024B1B689B68019308BD2C02030076
:10442C0008B5024B1B68DB68019308BD2C02030026
:10443C0008B5024B1B689B6A019308BD2C02030054
:10444C0008B5024B1B689B6F019308BD2C0203003F
:10445C0008B5024B1B689B68019308BD68020300FA
:10446C0008B5024B1B68DB68019308BD68020300AA
:10447C0008B5024B1B68DB6B019308BD44020300BB
:10448C0008B5024B1B685B68019308BD4002030032
:10449C0008B5024B1B689B68019308BD40020300E2
:1044AC0008B5024B1B68DB68019308BD4002030092
:1044BC0008B5024B1B681B69019308BD4002030041
:1044CC0008B5024B1B685B69019308BD40020300F1
:1044DC0008B5024B1B689B69019308BD40020300A1
:1044EC0008B5024B1B68DB69019308BD4002030051
:1044FC0008B5024B1B681B6A019308BD4002030000
:10450C0008B5024B1B681B6B019308BD40020300EE
:10451C0008B5024B1B685B6B019308BD400203009E
:10452C0008B5024B1B681B6C019308BD40020300CD
:10453C0008B5024B1B685B6C019308BD400203007D
:10454C0008B5024B1B685B68019308BD2002030091
:10455C0008B5024B1B68DB6A019308BD20020300FF
:10456C0008B5034B1B68D3F88830019308BD0000D5
:10457C002002030008B5034B1B68D3F89430019359
:10458C0008BD00002002030008B5024B1B681B6825
:10459C00019308BD1C02030008B5024B1B685B6845
:1045AC00019308BD1C02030008B5024B1B681B6C71
:1045BC00019308BD1C02030008B5024B1B685B6C21
:1045CC00019308BD1C020300002340681A46FFF744
:1045DC0057BF406800220221FFF762BF00224068EB
:1045EC001146FFF755BF002240681146FFF760BF28
:1045FC00002340681A461946FFF762BF0023406843
:10460C001A461946FFF764BF40680021FFF788BFC0
:10461C0040680021FFF78CBF4068002281F0010147
:10462C00FFF75EBF40680022FFF76ABF00224068B8
:10463C001146FFF76DBF002240681146FFF758BFC7
:10464C002DE9F04395B014460D46074600F0F6F9F7
:10465C0000211C220DA8009100F095FC40230C9326
:10466C0020466B460CAA0021FFF7FAFE04460028F0
:10467C004BD1024601216868FFF71AFF02218046E0
:10468C0022466868FFF714FF009E81462146002EE3
:10469C003BD0002939D17368022B03D00A2B11D0DF
:1046AC00F669F4E7B8F1000FFAD0716906A8043185
:1046BC0007AD00F0F1F90FCD3C1D0FC42B68237032
:1046CC004146EDE7B9F1000FEAD07469102201A858
:1046DC0000F059FC06238DF8143001AD04F10803E9
:1046EC001834186859682A4603C20833A342154681
:1046FC00F7D101A906A807AD00F0AEF90FCD3C1D0E
:10470C000FC42B6823704946CAE70098FFF7A0FE38
:10471C00384615B0BDE8F083024B034A1A600022FC
:10472C005A607047B8E60320F8500B00002240682E
:10473C001146FFF7BDBE002240681146FFF7D8BEF8
:10474C00002240681146FFF7E3BE40680022FFF7E5
:10475C00D7BE4068002281F00101FFF7C1BE0023E3
:10476C0040681A461946FFF7B3BE002340681A4644
:10477C001946FFF7A5BE002240681146FFF788BE18
:10478C00406800220221FFF78BBE002340681A46C6
:10479C00FFF776BE024B04225A60024A1A60704739
:1047AC00C0E6032034510B0070474174704708B5C4
:1047BC00007CFFF7EDFD20EAE07008BD08B5007C39
:1047CC00FFF7BEFD20EAE07008BD08B5007CFFF7DE
:1047DC00C7FD40EAE07008BD08B5007CFFF7B8FDE6
:1047EC0040EAE07008BD007CFFF7C2BD37B5457CE0
:1047FC0004462DB1207C03B0BDE83040FFF798BDD6
:10480C00007C0191FFF7C4FD00280199F2DC2846D9
:10481C0003B030BD10B514210446FFF736FC20461A
:10482C0010BD000010B54FF47A73044608461146CB
:10483C000022C4E90123044B236001232074637418
:10484C00FFF7AEFD204610BD70510B007047F8B558
:10485C00064615460C468F18BC4206D0336814F831
:10486C00011B9B6830469847F6E72846F8BD007C4C
:10487C000022FFF715BD007C0021FFF719BD007C5D
:10488C000021FFF71DBD007C0021FFF721BD007C3E
:10489C000021FFF725BD10B514210446FFF7F5FBE9
:1048AC00204610BD10B54FF47A730446084600211B
:1048BC00C4E90113034B236020741146FFF720FD5C
:1048CC00204610BDA0510B004174704770477047D3
:1048DC0008B50021007CFFF7CBFC40EAE07008BD76
:1048EC0008B50121007CFFF7C3FC40EAE07008BD6D
:1048FC0008B5007CFFF7B4FC20EAE07008BD08B5F1
:10490C00007CFFF7A5FC20EAE07008BD13B5044657
:10491C00007C0191FFF7A4FC0028019901DC607C6C
:10492C0020B1207CFFF7ACFC20EAE07002B010BD97
:10493C00007CFFF7ADBC10B514210446FFF7A5FBB6
:10494C00204610BD10B54FF47A730446084600217A
:10495C00C4E90113044B23600123207463741146D2
:10496C00FFF76EFC204610BDC8510B0010B5142289
:10497C000446002100F007FB204610BD10B50F4C7B
:10498C0088B003A8FFF7F2FF2178BFF35B8F11F01B
:10499C0001010FD120460191FFF779FB019948B134
:1049AC0003AA0748FFF7CEFF2046FFF775FB054823
:1049BC0000F0D5FA024808B010BD00BFC8E60320CD
:1049CC00CCE60320D9480B00704710B518210446DB
:1049DC00FFF75BFB204610BDF0B5037D062B8DB0B9
:1049EC000E4600F104074FF0000412D000F1080548
:1049FC0015F8011D0A22304600F03DF9AF4204447F
:104A0C0019D0002CF4D02E21304600F031F904449A
:104A1C00EEE72F236A4639460A208DF80040FFF74F
:104A2C00C7FC684600F0E6FA33680246DB68694664
:104A3C0030469847044620460DB0F0BD10B5054BE6
:104A4C000446112240F8043B002100F09CFA204659
:104A5C0010BD00BFF8510B000346074A10B543F8D0
:104A6C00042B01F1100251F8044B43F8044B914212
:104A7C00F9D10A781A7010BDF8510B0010B59DF8D9
:104A8C00084044EA032343EA024242EA0161042358
:104A9C004160037510BD000007B5064B0360CB7871
:104AAC0000938B784A780978FFF7E8FF03B05DF83C
:104ABC0004FB00BFF8510B00014B1860704700BF9E
:104ACC0044E6032008B50B4B43B1FFF757FF0368CF
:104ADC001B699847002801DDAFF30080064B43B1FA
:104AEC0000F0A2F903681B699847002801DDAFF3B9
:104AFC00008008BD000000000000000008B5FFF7B2
:104B0C00E1FFFFF775FC014B186008BD34E703208B
:104B1C000548064A064908B5121A00F026FA054B54
:104B2C00054A1A6008BD00BF00F4032004F40320FA
:104B3C0044530B0000F403201E1C279A07B50023D6
:104B4C0000931A466FF07701FFF714FD03B05DF880
:104B5C0004FB000007B543880A2B08D0502B0BD15F
:104B6C00094B1B684BB103B05DF804EB1847FFF71A
:104B7C00E5FF03B05DF804FB002300931A466FF0C9
:104B8C007701FFF7F7FCF4E7E4E6032010B51248D1
:104B9C000021FFF711FD114B1A68114B9A42114B72
:104BAC000CBF012200221A7001D0FFF7B1FFFFF7F2
:104BBC000FFC044600F0F0F90B4B13B12046AFF399
:104BCC00008000210848FFF753FCBDE8104007485F
:104BDC000021FFF7C5BC00BFC54A0B0000F4032041
:104BEC001E1C279AE0E6032000000000614B0B001E
:104BFC00014B00229A607047E8E60320024B1A68CA
:104C0C00024B1A60704700BF40E60320F8E6032011
:104C1C00014B024A1A607047FCE6032020520B003D
:104C2C00F8B506460D468F180024BD420CD03368EB
:104C3C0015F8011B9B6830469847031E01DB1C448A
:104C4C00F3E7002C08BF1C462046F8BD13B50446FC
:104C5C00084659B1019100F0CDF923680199DB6840
:104C6C000246204602B0BDE81040184702B010BD05
:104C7C0003689B68184730B58BB00023012A8DF868
:104C8C00243098BF0A2209AC0D46B1FBF2F101FBAE
:104C9C00125303F0FF03092B94BF30333733DBB2CD
:104CAC00AA4204F8013DEFD92146FFF7CFFF0BB024
:104CBC0030BD0000024800230360FFF781BB00BF3A
:104CCC0000E70320054B02221A60054B054A9A6047
:104CDC000020C3E90000FFF733BC00BF10E703203E
:104CEC0004E703200000FFFF10B5044608462170BE
:104CFC00FFF70EFB00236360204610BD00224068C6
:104D0C001146FFF7F5BB002240681146FFF700BCC7
:104D1C0040680022FFF7F4BB4068002281F00101DB
:104D2C00FFF7DEBB002340681A461946FFF7D0BBDD
:104D3C00002340681A461946FFF7C2BB00224068A0
:104D4C001146FFF7B5BB002240681146FFF7A0BB28
:104D5C00406800220221FFF7A3BB002340681A46DB
:104D6C00FFF78EBB024B03225A60024A1A6070474F
:104D7C0014E703202C520B007047000038B5202597
:104D8C00142304460360856005610649284600F03B
:104D9C00E4F804496060284600F0DFF8E060204643
:104DAC0038BD00BF60520B0030B50E4D2978BFF3F3
:104DBC005B8F11F0010487B011D12846FFF767F91A
:104DCC0068B101A8FFF7DAFF01AA21460648FFF7F0
:104DDC0069FD2846FFF760F9044800F0C0F8024866
:104DEC0007B030BD1CE7032020E70320854D0B00E6
:104DFC007047000038B5044614252A46002100F0FF
:104E0C00C2F825804025074925812846258200F0D7
:104E1C00A4F804496060284600F09FF8E060204642
:104E2C0038BD00BF60520B0030B50E4D2978BFF372
:104E3C005B8F11F0010487B011D12846FFF727F9D9
:104E4C0068B101A8FFF7D6FF01AA21460648FFF773
:104E5C00E9FC2846FFF720F9044800F080F80248E6
:104E6C0007B030BD38E703203CE70320FD4D0B00B5
:104E7C00232813B502D9002002B010BDA0F10B03FA
:104E8C00022B1AD8174C2178BFF35B8F11F001015C
:104E9C000BD120460191FFF7FAF8019928B112487D
:104EAC00FFF722FF2046FFF7F7F80F4B1878FFF7B4
:104EBC0037FA0028DFD10120DEE7012809D8FFF7F7
:104ECC0073FF0021007CFFF713FA80F00100C0B2E1
:104EDC00D2E709380128EED8FFF7A6FF007CFFF7D0
:104EEC004FFAF2E750E7032054E70320232838B5A4
:104EFC0004460D460AD8FF2908D0FFF7B9FF28B1A0
:104F0C0029462046BDE83840FFF782BA38BD38B58F
:104F1C0004460D46FFF7ACFFF0B104212046FFF725
:104F2C006FFA042805D1A9B22046BDE83840FFF736
:104F3C007FBA02212046FFF763FA02280CD12046E3
:104F4C00FFF76EFA012801D0042805D12946204626
:104F5C00BDE83840FFF774BA38BDFFF794B80023AA
:104F6C0001461A46184600F04DB80A44914200F129
:104F7C00FF3300D1704710B511F8014B03F8014F06
:104F8C009142F9D110BD02440346934200D17047BF
:104F9C0003F8011BF9E7000038B5104B1D68AB6B2B
:104FAC000446B3B91820FFF7EFFA0246A86320B9FC
:104FBC000B4B0C484221FFF7F7FA0B490B4BC0E99E
:104FCC0000130B4B83600B23838100210120C2E96A
:104FDC000401AB6B00221C615A6138BD44E603200E
:104FEC0061520B0078520B000E33CDAB34126DE6D0
:104FFC00ECDE0500034613F8012B002AFBD1181A2E
:10500C00013870472DE9F843DFF8B8800646D8F828
:10501C0000001F460D46914600F056F8254B1C68C3
:10502C0034B9254C1C60254B13B11B68C4F888306F
:10503C0063681F2B07DDD8F8000000F047F84FF02D
:10504C00FF30BDE8F8834EB3D4F8880088B91C4B08
:10505C0023B9D8F8000000F038F8F0E74FF484706A
:10506C00FFF792FA0028F4D00023C0E94033C4F8CB
:10507C008800636840F8239001229A4000EB83017A
:10508C00D0F800311343C0F80031022EC1F8807003
:10509C0002BFD0F804311343C0F804316368D8F868
:1050AC0000005A1C0233626044F8235000F00EF8E2
:1050BC000020C6E7E8E703205CE7032000000000BF
:1050CC0095450B00A8E60320704770477047000019
:1050DC001D400B0059400B0081400B0085400B001C
:1050EC00000000000000000000000000D5450B008F
:1050FC00DF450B00E9450B00F3450B00FD450B00AC
:10510C0009460B0015460B001D460B0025460B00EF
:10511C0031460B0039460B0043460B004D460B0045
:10512C00000000000000000097470B008D470B00AB
:10513C0083470B0039470B0077470B006B470B007D
:10514C0015460B001D460B005F470B0057470B0025
:10515C004D470B0043470B004D460B000000000071
:10516C0000000000B5470B0021480B00F9470B006D
:10517C002D4C0B00C9470B00E5470B00D7470B0024
:10518C00F3470B00B7470B00BB470B0000000000B8
:10519C000000000059480B00A3480B007B480B0093
:1051AC005B480B0083480B008B480B0093480B00AB
:1051BC009B480B000000000000000000DB480B00C7
:1051CC0043490B0019490B002D4C0B000B490B00EC
:1051DC00DD480B00ED480B003D490B00FD480B0072
:1051EC00D5480B000000000000000000E5490B0052
:1051FC00D5490B00D7490B0025592D256D2D25645C
:10520C005425483A254D3A2553257A006173637429
:10521C00696D650061707000000000000000000006
:10522C00674D0B005D4D0B00534D0B00494D0B00B2
:10523C003D4D0B00314D0B0015460B001D460B0070
:10524C00254D0B001D4D0B00134D0B00094D0B0094
:10525C004D460B00005245454E54206D616C6C6FF1
:10526C006320737563636565646564002F6D6E748C
:10527C002F776F726B73706163652F776F726B73BF
:10528C00706163652F4743432D31302D7069706514
:10529C006C696E652F6A656E6B696E732D4743433F
:1052AC002D31302D706970656C696E652D34385FE9
:1052BC0032303230313132345F3136303631383091
:1052CC003634312F7372632F6E65776C69622F6E73
:1052DC0065776C69622F6C6962632F7374646C6997
:1052EC00622F72616E642E630000000025420B0079
:1052FC0025470B00A1470B00FD4B0B00094C0B0085
:10530C001D4C0B00C14C0B00D14C0B00714D0B0014
:04531C00000000008D
:10532000040000001400000003000000474E550078
:10533000B87B31D5E15FF32C1A6A62A36F99E865F7
:04534000BC0C4B4E08
:045344000000000065
:1053480018520B0048E6032000000000000000008F
:105358000000000000000000000000000000000045
:105368000000000000000000000000000000000035
:105378000000000000000000000000000000000025
:105388000000000000000000000000000000000015
:105398000000000000000000000000000000000005
:0C53A8000000000000000000ECE7032003
:1053B400FFFFFFFF00000102030405060708090AB6
:1053C4000B0C0D0E0F101112131415161718191AB1
:0853D4001B1C1D1E1F202800F8
:0453DC0078563412B9
:04000003B000401CED
:00000001FF
